:020000040800F2
:100000000000022001060008990B00089F0B000861
:10001000A50B0008AB0B0008B10B000800000000A6
:10002000000000000000000000000000B70B000806
:10003000C30B000800000000CF0B0008DB0B00081A
:100040005106000851060008510600085106000834
:100050005106000851060008510600085106000824
:100060005106000851060008510600085106000814
:10007000510600085106000851060008E90B000867
:1000800051060008510600085106000851060008F4
:1000900051060008510600085106000851060008E4
:1000A00051060008510600085106000851060008D4
:1000B00051060008510600085106000851060008C4
:1000C00051060008510600085106000851060008B4
:1000D00051060008510600085106000851060008A4
:1000E0005106000851060008510600085106000894
:1000F0005106000851060008510600085106000884
:100100005106000851060008510600085106000873
:100110005106000851060008510600085106000863
:100120005106000851060008510600085106000853
:100130005106000851060008510600085106000843
:10014000510600085106000851060008FD0B000882
:100150005106000851060008510600085106000823
:100160005106000851060008510600085106000813
:100170005106000851060008510600080000000062
:080180005106000851060008B9
:1001880010B5054C237833B9044B13B10448AFF3C9
:1001980000800123237010BD1C0500200000000012
:1001A8007882000808B5034B1BB103490348AFF335
:1001B800008008BD000000002005002078820008AB
:1001C80053B94AB9002908BF00281CBF4FF0FF31B6
:1001D8004FF0FF3000F074B9ADF1080C6DE904CEB2
:1001E80000F006F8DDF804E0DDE9022304B070470A
:1001F8002DE9F047089E0D4604468846002B4DD150
:100208008A42944668D9B2FA82F252B101FA02F3EC
:10021800C2F1200120FA01F10CFA02FC41EA0308BC
:1002280094404FEA1C45210CB8FBF5FE1FFA8CF7E9
:1002380005FB1E8341EA03430EFB07F199420BD9E4
:100248001CEB03030EF1FF3080F01E81994240F24F
:100258001B81AEF1020E63445B1AA4B2B3FBF5F046
:1002680005FB103344EA034400FB07F7A7420AD909
:100278001CEB040400F1FF3380F00881A74240F230
:10028800058164440238E41B40EA0E4000211EB197
:10029800D4400023C6E90043BDE8F0878B4208D963
:1002A800002E00F0EE800021C6E900050846BDE8F2
:1002B800F087B3FA83F100294AD1AB4202D38242D4
:1002C80000F2F980841A65EB030301209846002E9A
:1002D800E2D0C6E90048DFE702B9FFDEB2FA82F2EF
:1002E800002A40F09180A1EB0C054FEA1C471FFA49
:1002F8008CFE0121B5FBF7F307FB1350250C45EAEB
:1003080000450EFB03F0A84208D91CEB050503F1D4
:10031800FF3802D2A84200F2CB8043462D1AA4B27D
:10032800B5FBF7F007FB105544EA05440EFB00FE49
:10033800A64508D91CEB040400F1FF3502D2A645F6
:1003480000F2BB802846A4EB0E0440EA03409EE777
:10035800C1F120078B4022FA07FC4CEA030C20FA73
:1003680007F405FA01F31C43FD404FEA1C4900FA63
:1003780001F3B5FBF9F8200C1FFA8CFE09FB1855A0
:1003880040EA054508FB0EF0A84202FA01F20BD933
:100398001CEB050508F1FF3A80F08880A84240F27E
:1003A8008580A8F1020865442D1AA4B2B5FBF9F0BE
:1003B80009FB105544EA054500FB0EFEAE4508D979
:1003C8001CEB050500F1FF346CD2AE456AD9023842
:1003D800654440EA0840A0FB0294A5EB0E05A5423F
:1003E800C846A64656D353D05EB1B3EB080265EBB8
:1003F8000E0505FA07F722FA01F3CD401F43C6E9B7
:1004080000750021BDE8F087C2F1200320FA03F14E
:100418000CFA02FC25FA03F395400D434FEA1C47FA
:100428001FFA8CFEB3FBF7F107FB11302B0C43EAE4
:10043800004301FB0EF0984204FA02F408D91CEBC1
:10044800030301F1FF382FD298422DD902396344B2
:100458001B1AADB2B3FBF7F007FB103345EA0345AF
:1004680000FB0EF3AB4208D91CEB050500F1FF3881
:1004780016D2AB4214D902386544ED1A40EA01415C
:1004880038E73146304607E78646E5E61846FAE695
:100498004B45A9D2B9EB020864EB0C0E0138A3E76F
:1004A8004046EAE7204694E74146D1E7D0467BE755
:1004B800023B654432E7084609E76444023842E7EC
:1004C800704700BF844641EA000313F003036DD16F
:1004D800403A41D351F8043B40F8043B51F8043BFF
:1004E80040F8043B51F8043B40F8043B51F8043B06
:1004F80040F8043B51F8043B40F8043B51F8043BF6
:1005080040F8043B51F8043B40F8043B51F8043BE5
:1005180040F8043B51F8043B40F8043B51F8043BD5
:1005280040F8043B51F8043B40F8043B51F8043BC5
:1005380040F8043B51F8043B40F8043B51F8043BB5
:1005480040F8043B51F8043B40F8043B51F8043BA5
:1005580040F8043B403ABDD2303211D351F8043B45
:1005680040F8043B51F8043B40F8043B51F8043B85
:1005780040F8043B51F8043B40F8043B103AEDD2F4
:100588000C3205D351F8043B40F8043B043AF9D245
:10059800043208D0D2071CBF11F8013B00F8013B18
:1005A80001D30B8803806046704700BF082A13D325
:1005B8008B078DD010F003038AD0C3F10403D21A3D
:1005C800DB071CBF11F8013B00F8013B80D331F871
:1005D800023B20F8023B7BE7043AD9D3013A11F8F1
:1005E800013B00F8013BF9D20B7803704B7843705C
:1005F8008B78837060467047DFF834D000F004FBD6
:100608000C480D490D4A002302E0D458C450043365
:10061800C4188C42F9D30A4A0A4C002301E013603B
:100628000432A242FBD307F07BFC00F0BBF9704711
:1006380000000220000000201C0500201085000892
:100648001C050020B4140020FEE7000080B582B02D
:1006580000AF00237B600C4B1B6B0B4A43F4001369
:100668001363094B1B6B03F400137B607B68002248
:1006780000210F2000F037FC0F2000F050FC00BFD5
:100688000837BD4680BD00BF0038024080B58AB03B
:1006980000AF07F1140300221A605A609A60DA600A
:1006A8001A6100233B612E4B1B6B2D4A43F001035B
:1006B80013632B4B1B6B03F001033B613B69002366
:1006C800FB60274B1B6B264A43F002031363244B42
:1006D8001B6B03F00203FB60FB680023BB60204B2D
:1006E8001B6B1F4A43F4807313631D4B1B6B03F48E
:1006F8008073BB60BB6800237B60194B1B6B184A77
:1007080043F080031363164B1B6B03F080037B607D
:100718007B6800233B60124B1B6B114A43F00403B8
:1007280013630F4B1B6B03F004033B603B68002211
:100738004FF4E0510B4801F08DF84FF4E0537B6122
:100748000123BB610023FB6100233B6207F1140313
:100758001946044800F0E4FE00BF2837BD4680BDB6
:1007680000380240001C024080B500AF134B144A09
:100778001A60124B4FF400725A60104B00229A60B4
:100788000E4B0022DA600D4B4FF400721A610B4BCE
:100798004BF680325A61094B00229A61074B0022BE
:1007A800DA61064B01221A62044801F06BF803462D
:1007B800002B01D000F0C0F900BF80BD3805002033
:1007C8000038004080B590B000AF786007F12C0386
:1007D80000221A605A609A60DA601A6107F11C03F5
:1007E80000221A605A609A60DA607B681B68664A61
:1007F800934240F0C4800123FB61DD233B62032365
:100808007B6207F11C03184603F03AFB0346002BF2
:1008180001D000F091F90023BB615C4B1B6C5B4A73
:1008280043F480431364594B1B6C03F48043BB614E
:10083800BB6900237B61554B1B6B544A43F0020391
:100848001363524B1B6B03F002037B617B6900232C
:100858003B614E4B1B6B4D4A43F4807313634B4B08
:100868001B6B03F480733B613B690023FB60474BC0
:100878001B6B464A43F004031363444B1B6B03F0A2
:100888000403FB60FB684FF40073FB6202233B63C5
:1008980000237B630023BB630523FB6307F12C0361
:1008A80019463B4800F03CFE0A23FB6202233B63E7
:1008B80000237B630023BB630523FB6307F12C0341
:1008C8001946344800F02CFE0423FB6202233B63E4
:1008D80000237B630023BB630623FB6307F12C0320
:1008E80019462C4800F01CFE4023FB6202233B63A0
:1008F80000237B630023BB630523FB6307F12C0301
:100908001946254800F00CFE244B254A1A60234B53
:1009180000225A60214B40229A60204B0022DA6064
:100928001E4B4FF480621A611C4B4FF400625A61EF
:100938001A4B4FF400529A61184B4FF48072DA61E7
:10094800164B00221A62154B04225A62134B0322DB
:100958009A62124B4FF08072DA62104B4FF48002A9
:100968001A630E4800F0F6FA0346002B01D000F097
:10097800E3F87B68094A9A63084A7B68936300BF77
:100988004037BD4680BD00BF0038004000380240F7
:1009980000040240002002400008024080050020B8
:1009A80070600240F0B5ADF5777D00AF07F576735E
:1009B800A3F57176294B34461D460FCD0FC495E833
:1009C800070003C422800234130C237006F11B03B2
:1009D80040F2C5120021184607F0DCFA07F57673D5
:1009E800A3F5727358221A6000F014F900F03AF86F
:1009F800FFF74CFEFFF72AFEFFF7B6FE06F0B2FD42
:100A08004FF47A7000F074F90023C7F8D433D7F89C
:100A1800D4335A1CC7F8D423391D0A22184607F0C4
:100A2800A3FA07F114031A333A1D1146184607F0C2
:100A380003FB0B4BDB6907F1100107F5FA7210464F
:100A48009847074B1B6A07F114024FF4F0711046E0
:100A58009847012000F04CF9D9E700BF90820008C0
:100A68007C00002080B594B000AF07F1200330224D
:100A78000021184607F08EFA07F10C0300221A60CD
:100A88005A609A60DA601A610023BB60284B1B6CBD
:100A9800274A43F080531364254B1B6C03F08053A3
:100AA800BB60BB6800237B60224B1B68214A43F470
:100AB800804313601F4B1B6803F480437B607B6893
:100AC80001233B624FF480337B620223BB634FF404
:100AD8008003FB6308233B6460237B640223BB64BD
:100AE8000323FB6407F12003184602F09BFD03462D
:100AF800002B01D000F020F80F23FB6002233B619C
:100B080000237B614FF4A053BB614FF48053FB611A
:100B180007F10C030221184602F0FCFF0346002BE4
:100B280001D000F009F800BF5037BD4680BD00BFB6
:100B3800003802400070004080B400AF72B600BFB9
:100B4800FEE7000080B483B000AF00237B600F4B4A
:100B58005B6C0E4A43F4804353640C4B5B6C03F4A8
:100B680080437B607B6800233B60084B1B6C074A13
:100B780043F080531364054B1B6C03F080533B60B8
:100B88003B6800BF0C37BD4680BC70470038024048
:100B980080B400AFFEE780B400AFFEE780B400AFDA
:100BA800FEE780B400AFFEE780B400AFFEE780B494
:100BB80000AF00BFBD4680BC704780B400AF00BF27
:100BC800BD4680BC704780B400AF00BFBD4680BC46
:100BD800704780B500AF00F06FF800BF80BD00001F
:100BE80080B500AF024800F063FA00BF80BD00BFC7
:100BF8008005002080B500AF024801F021FC00BF4D
:100C080080BD00BF540C002080B400AF00BFBD46BB
:100C180080BC704780B500AF0E4B1B680D4A43F48B
:100C2800007313600B4B1B680A4A43F4806313601C
:100C3800084B1B68074A43F480731360032000F0D5
:100C480047F90F2000F008F8FFF77CFF002318464B
:100C580080BD00BF003C024080B582B000AF786024
:100C6800124B1A68124B1B7819464FF47A73B3FB70
:100C7800F1F3B2FBF3F3184600F05FF90346002BDB
:100C880001D001230EE07B680F2B0AD80022796877
:100C98004FF0FF3000F027F9064A7B681360002305
:100CA80000E0012318460837BD4680BD000000203B
:100CB800080000200400002080B400AF054B1B781A
:100CC8001A46054B1B681344034A136000BFBD4610
:100CD80080BC704708000020E005002080B400AF09
:100CE800024B1B681846BD4680BC7047E0050020D3
:100CF80080B584B000AF7860FFF7F0FFB8607B681C
:100D0800FB60FB68B3F1FF3F05D00A4B1B781A461E
:100D1800FB681344FB6000BFFFF7E0FF0246BB68B7
:100D2800D31AFA689A42F7D800BF00BF1037BD46F9
:100D380080BD00BF0800002080B485B000AF786097
:100D48007B6803F00703FB600C4BDB68BB60BA6889
:100D58004FF6FF031340BB60FB681A02BB681343DE
:100D680043F0BF6343F40033BB60044ABB68D360FD
:100D780000BF1437BD4680BC704700BF00ED00E0DF
:100D880080B400AF044BDB681B0A03F00703184666
:100D9800BD4680BC704700BF00ED00E080B483B062
:100DA80000AF0346FB7197F90730002B0BDBFB798B
:100DB80003F01F02064997F907305B09012000FA82
:100DC80002F241F8232000BF0C37BD4680BC7047B3
:100DD80000E100E080B483B000AF03463960FB71E6
:100DE80097F90730002B0ADB3B68DAB20C4997F910
:100DF80007301201D2B20B4483F800230AE03B68A3
:100E0800DAB20849FB7903F00F03043B1201D2B2AE
:100E18000B441A7600BF0C37BD4680BC704700BF34
:100E280000E100E000ED00E080B489B000AFF860B8
:100E3800B9607A60FB6803F00703FB61FB69C3F1E3
:100E48000703042B28BF0423BB61FB690433062B6B
:100E580002D9FB69033B00E000237B614FF0FF32BE
:100E6800BB6902FA03F3DA43BB681A407B699A400C
:100E78004FF0FF317B6901FA03F3D9437B680B40DC
:100E8800134318462437BD4680BC704780B582B0EE
:100E980000AF78607B68013BB3F1807F01D3012309
:100EA8000FE00A4A7B68013B53600F214FF0FF3087
:100EB800FFF790FF054B00229A60044B07221A6047
:100EC800002318460837BD4680BD00BF10E000E08B
:100ED80080B582B000AF78607868FFF72DFF00BF5B
:100EE8000837BD4680BD80B586B000AF0346B960FF
:100EF8007A60FB7300237B61FFF742FF78617A68B1
:100F0800B9687869FFF790FF024697F90F301146E4
:100F18001846FFF75FFF00BF1837BD4680BD80B594
:100F280082B000AF0346FB7197F907301846FFF708
:100F380035FF00BF0837BD4680BD80B582B000AF21
:100F480078607868FFF7A2FF034618460837BD4661
:100F580080BD000080B586B000AF786000237B615B
:100F6800FFF7BCFE38617B68002B01D1012399E0B3
:100F78007B68022283F835207B68002283F83420BE
:100F88007B681B681A687B681B6822F001021A607C
:100F98000FE0FFF7A3FE02463B69D31A052B08D9D9
:100FA8007B6820225A657B68032283F83520032357
:100FB80078E07B681B681B6803F00103002BE8D10D
:100FC8007B681B681B687B617A69384B13407B61BF
:100FD8007B685A687B689B681A437B68DB681A439E
:100FE8007B681B691A437B685B691A437B689B694A
:100FF8001A437B68DB691A437B681B6A13437A6967
:1010080013437B617B685B6A042B07D17B68DA6AD0
:101018007B681B6B13437A6913437B617B681B688E
:101028007A691A607B681B685B697B617B6923F05E
:1010380007037B617B685B6A7A6913437B617B6822
:101048005B6A042B17D17B689B6A7A6913437B61BF
:101058007B68DB6A002B0ED0786800F0E7F903465E
:10106800002B08D07B6840225A657B68012283F8F0
:101078003520012316E07B681B687A695A61786815
:1010880000F0A0F90346FB607B68DB6D3F229A40C5
:10109800FB689A607B6800225A657B68012283F8A6
:1010A8003520002318461837BD4680BD3F8010F014
:1010B80080B586B000AF78600023BB608E4B1B689C
:1010C8008E4AA2FB03239B0A7B617B689B6D3B6175
:1010D8003B691B68FB607B68DB6D08229A40FB68F4
:1010E8001340002B1AD07B681B681B6803F00403AD
:1010F800002B13D07B681B681A687B681B6822F07A
:1011080004021A607B68DB6D08229A403B699A608A
:101118007B685B6D43F001027B685A657B68DB6D19
:1011280001229A40FB681340002B12D07B681B6891
:101138005B6903F08003002B0BD07B68DB6D012219
:101148009A403B699A607B685B6D43F002027B685A
:101158005A657B68DB6D04229A40FB681340002BBC
:1011680012D07B681B681B6803F00203002B0BD0AE
:101178007B68DB6D04229A403B699A607B685B6DF3
:1011880043F004027B685A657B68DB6D10229A4045
:10119800FB681340002B43D07B681B681B6803F077
:1011A8000803002B3CD07B68DB6D10229A403B691A
:1011B8009A607B681B681B6803F48023002B18D097
:1011C8007B681B681B6803F40023002B08D17B682D
:1011D8001B6C002B24D07B681B6C786898471FE039
:1011E8007B689B6C002B1BD07B689B6C786898474E
:1011F80016E07B681B681B6803F48073002B07D11B
:101208007B681B681A687B681B6822F008021A60F2
:101218007B681B6C002B03D07B681B6C7868984735
:101228007B68DB6D20229A40FB681340002B00F09E
:101238008F807B681B681B6803F01003002B00F08D
:1012480087807B68DB6D20229A403B699A607B68C7
:1012580093F83530DBB2052B36D17B681B681A68EA
:101268007B681B6822F016021A607B681B685A6943
:101278007B681B6822F080025A617B681B6C002B1C
:1012880003D17B689B6C002B07D07B681B681A68AE
:101298007B681B6822F008021A607B68DB6D3F22BE
:1012A8009A403B699A607B68012283F835207B6805
:1012B800002283F834207B681B6D002B7ED07B686E
:1012C8001B6D7868984779E07B681B681B6803F496
:1012D8008023002B1DD07B681B681B6803F4002348
:1012E800002B0DD17B685B6C002B31D07B685B6C6D
:1012F800786898472CE000BF00000020B5814E1B9D
:101308007B68DB6B002B23D07B68DB6B78689847A6
:101318001EE07B681B681B6803F48073002B0FD1E9
:101328007B681B681A687B681B6822F010021A60C9
:101338007B68012283F835207B68002283F83420FB
:101348007B68DB6B002B03D07B68DB6B7868984786
:101358007B685B6D002B32D07B685B6D03F001030B
:10136800002B22D07B68052283F835207B681B6818
:101378001A687B681B6822F001021A60BB68013397
:10138800BB607A699A4207D37B681B681B6803F0C5
:101398000103002BF2D100E000BF7B68012283F833
:1013A80035207B68002283F834207B68DB6C002BB7
:1013B80005D07B68DB6C7868984700E000BF183779
:1013C800BD4680BD80B485B000AF78607B681B687F
:1013D800DBB2103B134AA2FB03231B09FB60124A32
:1013E800FB6813441B781A467B68DA65FB68032B95
:1013F80009D97B681B6823F47F7323F003031A1D44
:101408007B689A6507E07B681B6823F47F7323F089
:1014180003037A6893657B689B6D18461437BD464D
:1014280080BC7047ABAAAAAAC884000880B485B05B
:1014380000AF78600023FB737B689B6ABB607B68A6
:101448009B69002B1FD1BB68032B56D801A252F809
:1014580023F000BF6D1400087F1400086D14000805
:10146800031500087B68DB6A03F08073002B46D005
:101478000123FB7343E07B68DB6AB3F1C07F40D193
:101488000123FB733DE07B689B69B3F5005F21D1C5
:10149800BB68032B37D801A252F823F0B514000813
:1014A800BB140008B5140008CD1400080123FB7311
:1014B80030E07B68DB6A03F08073002B25D00123C2
:1014C800FB7322E07B68DB6AB3F1C07F1FD1012385
:1014D800FB731CE0BB68022B03D9BB68032B03D04A
:1014E80018E00123FB7315E07B68DB6A03F0807367
:1014F800002B0ED00123FB730BE000BF0AE000BFF6
:1015080008E000BF06E000BF04E000BF02E000BF43
:1015180000E000BFFB7B18461437BD4680BC70470F
:1015280080B489B000AF7860396000237B61002304
:101538003B610023BB610023FB616BE10122FB6976
:1015480002FA03F37B613B681B687A6913403B61CD
:101558003A697B699A4240F05A813B685B6803F0BC
:101568000303012B05D03B685B6803F00303022BE0
:1015780030D17B689B68BB61FB695B00032202FA80
:1015880003F3DB43BA691340BB613B68DA68FB6964
:101598005B0002FA03F3BA691343BB617B68BA695B
:1015A8009A607B685B68BB610122FB6902FA03F3FE
:1015B800DB43BA691340BB613B685B681B0903F0F6
:1015C8000102FB6902FA03F3BA691343BB617B6842
:1015D800BA695A603B685B6803F00303032B17D0B2
:1015E8007B68DB68BB61FB695B00032202FA03F3DB
:1015F800DB43BA691340BB613B689A68FB695B00CF
:1016080002FA03F3BA691343BB617B68BA69DA600B
:101618003B685B6803F00303022B23D1FB69DA08FC
:101628007B68083253F82230BB61FB6903F007037B
:101638009B000F2202FA03F3DB43BA691340BB6134
:101648003B681A69FB6903F007039B0002FA03F37E
:10165800BA691343BB61FB69DA087B680832B96968
:1016680043F822107B681B68BB61FB695B0003229F
:1016780002FA03F3DB43BA691340BB613B685B685A
:1016880003F00302FB695B0002FA03F3BA69134330
:10169800BB617B68BA691A603B685B6803F44033D6
:1016A800002B00F0B4800023FB605F4B5B6C5E4A4C
:1016B80043F4804353645C4B5B6C03F48043FB60EE
:1016C800FB685A4AFB699B08023352F82330BB6116
:1016D800FB6903F003039B000F2202FA03F3DB43C9
:1016E800BA691340BB617B68514A93422BD07B682F
:1016F800504A934225D07B684F4A93421FD07B685B
:101708004E4A934219D07B684D4A934213D07B6866
:101718004C4A93420DD07B684B4A934207D07B6872
:101728004A4A934201D107230EE008230CE006231E
:101738000AE0052308E0042306E0032304E002236B
:1017480002E0012300E00023FA6902F0030292009C
:101758009340BA691343BB613449FB699B08023360
:10176800BA6941F823203A4B9B68BB613B69DB436C
:10177800BA691340BB613B685B6803F48013002BB4
:1017880003D0BA693B691343BB61314ABB699360B3
:101798002F4BDB68BB613B69DB43BA691340BB6114
:1017A8003B685B6803F40013002B03D0BA693B69FC
:1017B8001343BB61264ABB69D360254B5B68BB6199
:1017C8003B69DB43BA691340BB613B685B6803F460
:1017D8000033002B03D0BA693B691343BB611C4A31
:1017E800BB6953601A4B1B68BB613B69DB43BA6931
:1017F8001340BB613B685B6803F48033002B03D064
:10180800BA693B691343BB61114ABB691360FB6941
:101818000133FB61FB690F2B7FF690AE00BF00BF61
:101828002437BD4680BC704700380240003801406C
:10183800000002400004024000080240000C024080
:10184800001002400014024000180240001C024030
:10185800003C014080B483B000AF78600B467B80C9
:1018680013467B707B78002B03D07A887B689A615B
:1018780003E07B881A047B689A6100BF0C37BD4679
:1018880080BC704780B588B000AF78607B68002B5B
:1018980001D1012328E17B6893F84130DBB2002BAA
:1018A80009D17B68002283F840207B68904A5A63FC
:1018B8007868FEF787FF7B68022283F841207B68FF
:1018C8001B68DB697A68126823F47B6323F00F03D3
:1018D800D3617B681B6802221A627B685B69022BF2
:1018E80060D07B68DB68002B02D110237B6101E0AC
:1018F80020237B617B689B68202B02D87B695B0077
:101908007B61012002F09EFBF8607B681B69B3F5E0
:10191800007F25D17B68DB68002B10D07B699B009A
:10192800FA68B2FBF3F213469B0013445B001A46B5
:101938007B685B69B2FBF3F305333B611FE07B69AE
:10194800DB00FA68B2FBF3F213469B0013445B001A
:101958001A467B685B69B2FBF3F305333B610EE023
:10196800FA687B69B2FBF3F213469B0013445B00F1
:101978001A467B685B69B2FBF3F305333B613B694D
:101988005C4AA2FB0323DB083B613B6903F00103CC
:10199800BB613A69BB69D31A5B08FB61BB691B026F
:1019A800BB6103E00223FB610023BB61FB69012BE0
:1019B80002D9FB69FF2B07D97B685B6C43F01002E7
:1019C8007B685A6401238FE07B681A69BB6942EA25
:1019D80003017B681B68FA690A431A627B681B6803
:1019E800DB6923F47B6323F00F037A6851687A6814
:1019F800926811437A68D26811437A6892690A43F7
:101A08001A437B681B6842F40062DA617B681B6AD0
:101A1800012B61D17B68384A5A637B681B68374A57
:101A2800934201D1364B01E04FF04023DB697A68DD
:101A3800126832498A4201D1314A01E04FF040220E
:101A480023F47B6323F00F03D3617B681B682B4A65
:101A5800934201D12A4B01E04FF0402302221A623F
:101A68007B681B68254A934201D1254B01E04FF062
:101A78004023DB697B817B685B68B3F5007F03D01B
:101A88007B685B68002B03D14FF480733B6101E0F6
:101A980000233B613B699AB27B689B689BB2134306
:101AA8009AB27B68DB689BB213439AB27B689B69E6
:101AB8009BB213439AB27B8913439BB243F40063EE
:101AC8007B817B681B680D4A934201D10C4B01E076
:101AD8004FF040237A89DA617B6800225A647B6878
:101AE800012283F84120002318462037BD4680BDD7
:101AF800FD1B0008CDCCCCCC111D000800380040DF
:101B08000034004080B483B000AF786000BF0C3769
:101B1800BD4680BC704780B483B000AF786000BF1A
:101B28000C37BD4680BC704780B483B000AF786086
:101B380000BF0C37BD4680BC704780B582B000AF8F
:101B480078607B685B6A1A887B681B68DA607B68E8
:101B58005B6A9A1C7B685A627B685B8D9BB2013B0F
:101B68009AB27B685A857B685B8D9BB2002B0ED13D
:101B78007B681B685A687B681B6822F0A0025A6061
:101B88007B68012283F841207868FFF7BBFF00BF1C
:101B98000837BD4680BD80B582B000AF78607B68ED
:101BA8001B68DA687B68DB6A92B21A807B68DB6A3A
:101BB8009A1C7B68DA627B685B8E9BB2013B9AB2A7
:101BC8007B685A867B685B8E9BB2002B0ED17B6844
:101BD8001B685A687B681B6822F060025A607B6841
:101BE800012283F841207868FFF795FF00BF083786
:101BF800BD4680BD80B586B000AF78607B681B6845
:101C08009B687B617B6893F84130DBB2042B3AD147
:101C18007B6903F00103012B09D17B681B685B68B2
:101C280003F04003402B02D17868FFF7B4FF7B69CB
:101C380003F04003402B26D17B681B685B6803F0E8
:101C48002003202B1FD17B681B685A687B681B68A0
:101C580022F060025A6000233B617B681B68DB68E6
:101C68003B617B681B689B683B613B697B68012221
:101C780083F841207B685B6C43F002027B685A64FE
:101C88007868FFF751FF7B6893F84130DBB2032B8C
:101C980036D17B6903F00203022B09D17B681B68EC
:101CA8005B6803F08003802B02D17868FFF745FF5B
:101CB8007B6903F00803082B22D17B681B685B68EB
:101CC80003F02003202B1BD17B681B685A687B68B4
:101CD8001B6822F0A0025A600023FB607B681B6827
:101CE8009B68FB60FB687B68012283F841207B6866
:101CF8005B6C43F004027B685A647868FFF714FF52
:101D080000BF1837BD4680BD80B588B000AF786089
:101D18007B681B689B68FB617B681B68924A9342DF
:101D280001D1924B01E04FF040239B68BB617B6877
:101D38001B685B687B617B681B688B4A934201D197
:101D48008A4B01E04FF040235B683B617B685B682E
:101D5800B3F5007F04D07B685B68002B40F0998066
:101D6800FB6903F00203022B07D17B6903F08003B0
:101D7800002B02D0786800F024F9BB6903F0010356
:101D8800012B07D13B6903F04003002B02D0786890
:101D980000F0C6F9BB6903F04003402B3AD13B6918
:101DA80003F02003002B35D07B681B686E4A9342F2
:101DB80001D16E4B01E04FF040235A687B681B68E5
:101DC80069498B4201D1694B01E04FF0402322F071
:101DD80060025A607B681B685A687B681B6822F03F
:101DE800A0025A600023FB607B681B68DB68FB600D
:101DF8007B681B689B68FB60FB687B68012283F833
:101E080041207B685B6C43F002027B685A64786807
:101E1800FFF78AFEFB6903F00803082B40F0C38034
:101E28007B6903F02003002B00F0BD807B681B68F2
:101E38005A687B681B6822F0A0025A607B681B689E
:101E4800494A934201D1494B01E04FF040235A6877
:101E58007B681B6844498B4201D1444B01E04FF039
:101E6800402322F060025A600023BB607B681B6835
:101E78009B68BB60BB687B68012283F841207B6854
:101E88005B6C43F004027B685A647868FFF74CFE89
:101E980089E0BB6903F00203022B07D13B6903F019
:101EA8008003002B02D0786800F0BCF8FB6903F0CF
:101EB8000103012B07D17B6903F04003002B02D0FB
:101EC800786800F0FBF8FB6903F04003402B2FD142
:101ED8007B6903F02003002B2AD07B681B685A68B3
:101EE8007B681B6822F060025A607B681B681E4A88
:101EF800934201D11D4B01E04FF040235A687B68A3
:101F08001B6819498B4201D1184B01E04FF040235F
:101F180022F0A0025A607B68012283F841207B6886
:101F28005B6C43F002027B685A647868FFF7FCFD3B
:101F3800BB6903F00803082B36D13B6903F0200383
:101F4800002B31D07B681B68074A934201D1074BAD
:101F580001E04FF040235A687B681B6802498B42B6
:101F680006D1024B06E000BF0038004000340040B4
:101F78004FF0402322F0A0025A607B681B685A6821
:101F88007B681B6822F060025A607B68012283F834
:101F980041207B685B6C43F004027B685A64786874
:101FA800FFF7C2FD00E000BF00BF2037BD4680BD7F
:101FB80080B483B000AF786000BF0C37BD4680BCEA
:101FC800704780B582B000AF78607B685B6A991C07
:101FD8007A6851621A887B681B68DA607B685B8D57
:101FE8009BB2013B9AB27B685A857B685B8D9BB23A
:101FF800002B13D17B681B685A687B681B6822F02A
:10200800A0025A607B685B8E9BB2002B06D17B686E
:10201800012283F841207868FFF7CAFF00BF08371C
:10202800BD4680BD80B582B000AF78607B685B6AD2
:10203800991C7A68516219887B681B681D4A93420B
:1020480001D11D4B01E04FF040230A46DA607B685E
:102058005B8D9BB2013B9AB27B685A857B685B8D2E
:102068009BB2002B21D17B681B68124A934201D195
:10207800114B01E04FF040235A687B681B680D49FB
:102088008B4201D10C4B01E04FF0402322F0A0021B
:102098005A607B685B8E9BB2002B06D17B6801225D
:1020A80083F841207868FFF783FF00BF0837BD46F3
:1020B80080BD00BF003800400034004080B582B0C9
:1020C80000AF78607B681B68D8687B68DB6A991CFE
:1020D8007A68D16282B21A807B685B8E9BB2013BC0
:1020E8009AB27B685A867B685B8E9BB2002B13D1B1
:1020F8007B681B685A687B681B6822F060025A601C
:102108007B685B8D9BB2002B06D17B68012283F82C
:1021180041207868FFF74CFF00BF0837BD4680BDF7
:1021280080B582B000AF78607B681B68204A934214
:1021380001D1204B01E04FF04023D8687B68DB6A6F
:10214800991C7A68D16282B21A807B685B8E9BB2D6
:10215800013B9AB27B685A867B685B8E9BB2002BE8
:1021680021D17B681B68124A934201D1114B01E0CF
:102178004FF040235A687B681B680D498B4201D198
:102188000C4B01E04FF0402322F060025A607B685C
:102198005B8D9BB2002B06D17B68012283F841201E
:1021A8007868FFF705FF00BF0837BD4680BD00BF50
:1021B800003800400034004080B586B002AF786037
:1021C8007B68002B01D1012301E17B681B68BB60A0
:1021D8007B6893F89534DBB2002B06D17B6800222C
:1021E80083F89424786805F09DFB7B68032283F8C4
:1021F8009524BB68B3F1A04F02D17B6800229A7185
:102208007B681B68184602F091F87B6818687B6841
:102218001A7C8DF8002004330ECB01F071FF0346C1
:10222800002B05D07B68022283F895240123CEE099
:102238007B681B680021184602F088F80346002BCB
:1022480005D07B68022283F895240123BFE0002390
:10225800FB734AE0FA7B79681346DB0013449B0062
:102268000B44153301221A70FA7B79681346DB0098
:1022780013449B000B441433FA7B1A70FA7BFB7BE4
:1022880098B279681346DB0013449B000B442E3345
:1022980002461A80FA7B79681346DB0013449B00D8
:1022A8000B44183300221A70FA7B79681346DB0056
:1022B80013449B000B441C3300221A60FA7B796894
:1022C8001346DB0013449B000B44203300221A60A2
:1022D800FA7B79681346DB0013449B000B442433D4
:1022E80000221A60FB7B0133FB737B681B79FA7B46
:1022F8009A42AFD30023FB7344E0FA7B7968134614
:10230800DB0013449B000B4403F2552300221A7090
:10231800FA7B79681346DB0013449B000B4403F5F2
:102328001573FA7B1A70FA7B79681346DB0013443D
:102338009B000B4403F5167300221A70FA7B796828
:102348001346DB0013449B000B4403F5177300226C
:102358001A60FA7B79681346DB0013449B000B4430
:1023680003F5187300221A60FA7B79681346DB00BC
:1023780013449B000B4403F5197300221A60FB7B7E
:102388000133FB737B681B79FA7B9A42B5D37B6870
:1023980018687B681A7C8DF8002004330ECB02F095
:1023A80021F80346002B05D07B68022283F8952488
:1023B80001230CE07B6800225A747B68012283F8B1
:1023C80095247B681B68184603F058F800231846C4
:1023D8001037BD4680BD80B584B000AF78607B689B
:1023E8001B68FB607B6893F89434012B01D10223AE
:1023F80022E07B68012283F89424FB68DB6803F001
:102408004003002B09D07B685B7B012B05D1FB685F
:102418009B6B43F48032FB689A637B681B681846A1
:1024280001F074FF7B681B68184603F007F87B68A7
:10243800002283F89424002318461037BD4680BD37
:1024480090B58DB000AF78607B681B683B623B6AD3
:10245800FB617B681B68184603F0BEF80346002B37
:1024680040F08C847B681B68184603F027F8034605
:10247800002B00F08284FB6903F500639B681B0A4C
:10248800C3F30D027B68C3F8D4247B681B68184625
:1024980003F014F8034603F00203022B07D17B680C
:1024A8001B685A697B681B6802F002025A617B68E4
:1024B8001B68184603F002F8034603F01003102BBC
:1024C80061D17B681B689A697B681B6822F01002DF
:1024D8009A613B6A1B6ABB61BB6903F00F02134632
:1024E800DB0013449B0003F514737A681344043328
:1024F8007B61BB695B0C03F00F03022B24D1BA6923
:1025080047F6F0731340002B35D07B69D968BB6957
:102518001B099BB2C3F30A039BB21A46386A02F03E
:102528003FFE7B69DA68BB691B09C3F30A031A44D7
:102538007B69DA607B695A69BB691B09C3F30A03C3
:102548001A447B695A6116E0BB695B0C03F00F0300
:10255800062B10D17B6803F29C4308221946386A7F
:1025680002F01EFE7B695A69BB691B09C3F30A03A3
:102578001A447B695A617B681B689A697B681B6887
:1025880042F010029A617B681B68184602F096FFB9
:10259800034603F40023B3F5002F40F0A78000237F
:1025A8007B627B681B68184602F09AFFB86299E064
:1025B800BB6A03F00103002B00F08E807B681B6868
:1025C8007A6AD2B21146184602F0BCFF38613B69FC
:1025D80003F00103002B0CD07B6A5A01FB691344FA
:1025E80003F530631A4601239360796A786800F02E
:1025F80089FE3B6903F00803002B0CD07B6A5A0163
:10260800FB69134403F530631A4608239360796A1B
:10261800786800F05FFF3B6903F01003002B08D0D7
:102628007B6A5A01FB69134403F530631A46102389
:1026380093603B6903F00203002B30D03B6A5B696F
:1026480003F08003802B09D1FB6903F500635B6805
:10265800FA6902F5006243F4806353607A6A1346AC
:10266800DB0013449B0003F514737A6813440433A6
:102678007B617B69DB78012B08D17B690022DA70EA
:102688007B6ADBB21946786805F052FA7B6A5A0110
:10269800FB69134403F530631A46022393603B69D0
:1026A80003F02003002B08D07B6A5A01FB6913440E
:1026B80003F530631A46202393603B6903F4005303
:1026C800002B09D07B6A5A01FB69134403F5306378
:1026D8001A464FF4005393607B6A01337B62BB6AEE
:1026E8005B08BB62BB6A002B7FF462AF7B681B6828
:1026F800184602F0E3FE034603F48023B3F5802F67
:1027080040F0DB807B681B68184602F002FFB86265
:1027180000237B62CDE0BB6A03F00103002B00F0CD
:10272800C2807B681B687A6AD2B21146184602F0EA
:1027380026FF38613B6903F00103002B57D07B6A01
:1027480003F00F03012202FA03F3FB60FB6903F5B0
:1027580000635A6BFB68DB43F96901F500611340BC
:102768004B637B6A5A01FB69134403F510631A46ED
:10277800012393607B689B79012B32D179687A6A4F
:102788001346DB0013449B000B4420331968786818
:102798007A6A1346DB0013449B0003441C331B680E
:1027A800194478687A6A1346DB0013449B00034493
:1027B800203319607B6A002B13D179687A6A134633
:1027C800DB0013449B000B4424331B68002B08D107
:1027D8007B6818687B6803F29C431A46012102F063
:1027E8002BFF7B6ADBB21946786805F01CF93B6958
:1027F80003F00803002B08D07B6A5A01FB691344D5
:1028080003F510631A46082393603B6903F010032D
:10281800002B08D07B6A5A01FB69134403F5106347
:102828001A46102393603B6903F04003002B08D03D
:102838007B6A5A01FB69134403F510631A46402367
:1028480093603B6903F00203002B23D0796A386A4E
:1028580001F02CFF7A6A1346DB0013449B00103307
:102868007A68134404337B617B69DB78012B08D1D8
:102878007B690022DA707B6ADBB21946786805F05A
:1028880069F97B6A5A01FB69134403F510631A4618
:10289800022393603B6903F08003002B03D0796A1D
:1028A800786800F0A3FC7B6A01337B62BB6A5B0833
:1028B800BB62BB6A002B7FF42EAF7B681B6818468F
:1028C80002F0FCFD034603F00043B3F1004F22D1B0
:1028D800FB6903F500635B68FA6902F5006223F09F
:1028E800010353607B6893F8CC34012B08D17B68D3
:1028F800002283F8CC240021786800F087FE02E0EB
:10290800786805F007F97B681B685A697B681B685B
:1029180002F000425A617B681B68184602F0CEFD3F
:10292800034603F40063B3F5006F12D1FB6903F5A6
:1029380000639B6803F00103012B02D1786805F05E
:10294800C3F87B681B685A697B681B6802F40062DD
:102958005A617B681B68184602F0B0FD034603F411
:102968008053B3F5805F40F0B780FB6903F50063DF
:102978005B68FA6902F5006223F0010353607B6823
:102988001B681021184601F091FE0023FB6246E007
:10299800FB6A5A01FB69134403F510631A464FF6A4
:1029A8007F339360FB6A5A01FB69134403F5106394
:1029B8001B68FA6A5101FA690A4402F5106223F4A5
:1029C80000131360FB6A5A01FB69134403F5306373
:1029D8001A464FF67F339360FB6A5A01FB6913442A
:1029E80003F530631B68FA6A5101FA690A4402F573
:1029F800306223F400131360FB6A5A01FB69134425
:102A080003F530631B68FA6A5101FA690A4402F552
:102A1800306243F000631360FB6A0133FB627B683A
:102A28001B791A46FB6A9342B2D3FB6903F500632C
:102A3800DB69FA6902F5006243F00113D3617B6830
:102A4800DB7B002B16D0FB6903F50063D3F88430D9
:102A5800FA6902F5006243F00B03C2F88430FB699F
:102A680003F500635B6CFA6902F5006243F00B033F
:102A7800536415E0FB6903F500635B69FA6902F5C5
:102A8800006243F4005343F02B035361FB6903F5E1
:102A980000631B69FA6902F5006243F00B031361D6
:102AA800FB6903F500631B68FA6902F5006223F409
:102AB800FE6313607B6818687B6899797B6803F20A
:102AC8009C431A4602F0B8FD7B681B685A697B680C
:102AD8001B6802F480525A617B681B68184602F032
:102AE800EDFC034603F40053B3F5005F23D17B6884
:102AF8001B68184602F07DFD7B681B68184601F0CC
:102B08004BFE03461A467B68DA717B681C6801F045
:102B1800ADF901467B68DB791A46204601F054FB83
:102B2800786804F0A8FF7B681B685A697B681B6893
:102B380002F400525A617B681B68184602F0BEFC1A
:102B4800034603F00803082B0AD1786804F085FFD0
:102B58007B681B685A697B681B6802F008025A6127
:102B68007B681B68184602F0A9FC034603F0800343
:102B7800802B23D13B6A9B6923F080023B6A9A61D0
:102B880001237B6214E079687A6A1346DB001344F8
:102B98009B000B4403F257231B78012B05D17B6A5A
:102BA800DBB21946786800F0F0FA7B6A01337B6281
:102BB8007B681B791A467B6A9342E4D37B681B685F
:102BC800184602F07BFC034603F48013B3F5801F1C
:102BD8003CD101237B622BE07B6A5A01FB691344D9
:102BE80003F510631B68BB6179687A6A1346DB00DA
:102BF80013449B000B4418331B78012B15D1BB6978
:102C0800002B12DA79687A6A1346DB0013449B00BA
:102C18000B44173301221A707B6ADBB263F07F031F
:102C2800DBB21946786800F0B0FA7B6A01337B6240
:102C38007B681B791A467B6A9342CDD37B681B68F5
:102C48005A697B681B6802F480125A617B681B68AA
:102C5800184602F033FC034603F40013B3F5001FD3
:102C680056D101237B6245E07B6A5A01FB69134414
:102C780003F530631B68BB6179687A6A1346DB0029
:102C880013449B000B4403F516731B78012B2ED1BC
:102C9800BB69002B2BDABB6903F480327B68D3F85D
:102CA800D43403F001039A4221D179687A6A134631
:102CB800DB0013449B000B4403F2572301221A70D4
:102CC8003B6A9B6943F080023B6A9A613B6A5B6995
:102CD80003F08003002B0AD1FB6903F500635B68EE
:102CE800FA6902F5006243F40073536008E07B6AF6
:102CF80001337B627B681B791A467B6A9342B3D3A4
:102D08007B681B685A697B681B6802F400125A6169
:102D18007B681B68184602F0D1FB034603F080432A
:102D2800B3F1804F0AD1786804F026FF7B681B68EE
:102D38005A697B681B6802F080425A617B681B688D
:102D4800184602F0BBFB034603F00403042B15D11D
:102D58007B681B685B68BB61BB6903F00403002BDD
:102D680002D0786804F016FF7B681B6859687B6896
:102D78001B68BA690A435A6000E000BF3437BD4691
:102D880090BD80B582B000AF78600B46FB707B6861
:102D980093F89434012B01D1022312E07B680122BD
:102DA80083F894247B68FA785A747B681B68FA78ED
:102DB8001146184602F01DFB7B68002283F8942414
:102DC800002318460837BD4680BD80B584B000AFE3
:102DD8007860084611461A460346FB700B463B804E
:102DE8001346BB700023FB7297F90330002B0FDAF0
:102DF800FB7803F00F021346DB0013449B001033EB
:102E08007A6813440433FB60FB6801225A700FE0B0
:102E1800FB7803F00F021346DB0013449B0003F515
:102E280014737A6813440433FB60FB6800225A70F9
:102E3800FB7803F00F03DAB2FB681A703A88FB6874
:102E48009A60FB68BA781A71FB685B78002B04D02B
:102E5800FB681B789AB2FB685A83BB78022B02D1B5
:102E6800FB6800225A717B6893F89434012B01D1D6
:102E780002230EE07B68012283F894247B681B6898
:102E8800F968184601F0ACFC7B68002283F89424AA
:102E9800FB7A18461037BD4680BD80B584B000AFB8
:102EA80078600B46FB7097F90330002B0FDAFB783C
:102EB80003F00F021346DB0013449B0010337A68BB
:102EC80013440433FB60FB6801225A700FE0FB785F
:102ED80003F00F021346DB0013449B0003F5147341
:102EE8007A6813440433FB60FB6800225A70FB784D
:102EF80003F00F03DAB2FB681A707B6893F8943416
:102F0800012B01D102230EE07B68012283F894246F
:102F18007B681B68F968184601F0E8FC7B680022AA
:102F280083F89424002318461037BD4680BD80B529
:102F380086B000AFF8607A603B600B46FB72FB7AA4
:102F480003F00F021346DB0013449B0003F51473D0
:102F5800FA68134404337B617B697A68DA607B69B9
:102F68003A681A617B6900225A617B6900225A70AB
:102F7800FB7A03F00F03DAB27B691A70FB689B795E
:102F8800012B02D17A687B69DA61FB681868FB68F3
:102F98009B791A46796901F085FD00231846183790
:102FA800BD4680BD80B586B000AFF8607A603B60F2
:102FB8000B46FB72FB7A03F00F021346DB00134447
:102FC8009B001033FA68134404337B617B697A6889
:102FD800DA607B693A681A617B6900225A617B6909
:102FE80001225A70FB7A03F00F03DAB27B691A7078
:102FF800FB689B79012B02D17A687B69DA61FB68EF
:103008001868FB689B791A46796901F04BFD002323
:1030180018461837BD4680BD80B584B000AF7860CB
:103028000B46FB70FB7803F00F037A681279934222
:1030380001D901234FE097F90330002B0FDAFB7811
:1030480003F00F021346DB0013449B0010337A6829
:1030580013440433FB60FB6801225A700DE0FA78D0
:103068001346DB0013449B0003F514737A6813447A
:103078000433FB60FB6800225A70FB6801229A70D7
:10308800FB7803F00F03DAB2FB681A707B6893F8D9
:103098009434012B01D102231DE07B68012283F8BF
:1030A80094247B681B68F968184602F0D0F8FB780E
:1030B80003F00F03002B09D17B6818687B689979A6
:1030C8007B6803F29C431A4602F0B6FA7B6800223A
:1030D80083F89424002318461037BD4680BD80B578
:1030E80084B000AF78600B46FB70FB7803F00F03E9
:1030F8007A681279934201D9012342E097F90330A3
:10310800002B0FDAFB7803F00F021346DB001344A1
:103118009B0010337A6813440433FB60FB68012278
:103128005A700FE0FB7803F00F021346DB001344DC
:103138009B0003F514737A6813440433FB60FB683F
:1031480000225A70FB6800229A70FB7803F00F0384
:10315800DAB2FB681A707B6893F89434012B01D1BA
:1031680002230EE07B68012283F894247B681B68A5
:10317800F968184602F0D8F87B68002283F894248E
:10318800002318461037BD4680BD80B584B000AF17
:1031980078600B46FB7097F90330002B0CDAFB784C
:1031A80003F00F021346DB0013449B0010337A68C8
:1031B80013440433FB600CE0FB7803F00F02134662
:1031C800DB0013449B0003F514737A68134404333B
:1031D800FB607B681B68F968184601F0FBFE034634
:1031E800FB72FB7A18461037BD4680BD80B58AB0A1
:1031F80002AF786039607B681B687B617B693B61E3
:103208003A681346DB0013449B0010337A68134472
:103218000433FB60FB685A69FB681B699A4201D951
:1032280001236BE0FB681A69FB685B69D31AFB61D1
:10323800FB689B68FA699A4202D9FB689B68FB6144
:10324800FB6903339B08BB612AE0FB681A69FB68CA
:103258005B69D31AFB61FB689B68FA699A4202D9D9
:10326800FB689B68FB61FB6903339B08BB61FB68D8
:10327800D9683B68DAB2FB6998B27B689B7900939E
:103288000346786901F04FFFFB68DA68FB691A4466
:10329800FB68DA60FB685A69FB691A44FB685A6183
:1032A8003B685A013B69134403F510639B699BB261
:1032B800BA699A4209D8FB685A69FB681B699A423D
:1032C80003D2FB681B69002BBFD1FB681A69FB6836
:1032D8005B699A4211D83B6803F00F03012202FA96
:1032E80003F3BB603B6903F500635A6BBB68DB43C0
:1032F800396901F5006113404B63002318462037F4
:10330800BD4680BD80B588B000AF786039607B6805
:103318001B68FB61FB69BB61FB693C3304331B68B9
:103328007B613B685A01BB69134403F530639B68B2
:103338003B617B689B79012B7BD13B6903F00803D8
:10334800002B15D07B69614A934240F2B9803B69F2
:1033580003F40043002B00F0B3803B685A01BB69BB
:10336800134403F530631A464FF400439360A7E013
:103378003B6903F02003002B09D03B685A01BB6965
:10338800134403F530631A462023936098E03B69A1
:1033980003F02803002B40F093807B694B4A93424B
:1033A8000FD93B6903F40043002B0AD03B685A014C
:1033B800BB69134403F530631A464FF40043936026
:1033C8007EE03A681346DB0013449B0003F5147350
:1033D8007A6813440433FB60FB681A6A3B68590136
:1033E800BB690B4403F530631B69C3F31203D21A9C
:1033F800FB685A613B68002B14D1FB681B69002BE2
:1034080009D17B6818687B6803F29C431A4601213E
:1034180002F012F906E0FB68DA68FB685B691A4497
:10342800FB68DA603B68DBB21946786804F0E0FABA
:1034380046E07B69264A934224D13B6903F4004362
:10344800002B0AD03B685A01BB69134403F530636B
:103458001A464FF40043936032E03B6903F02003BF
:10346800002B08D03B685A01BB69134403F530634D
:103478001A46202393603B68DBB21946786804F04B
:10348800B7FA1DE03B68002B14D179683A681346F7
:10349800DB0013449B000B4403F519731B68002BD6
:1034A80008D17B6818687B6803F29C431A460021A0
:1034B80002F0C2F83B68DBB21946786804F098FA63
:1034C800002318462037BD4680BD00BF0A30544F40
:1034D8000A31544F80B586B000AF786039607B6898
:1034E8001B687B617B693B617B693C3304331B68E8
:1034F800FB603B685A013B69134403F530639B68E2
:10350800BB60FB68154A93420ED9BB6803F40043BD
:10351800002B09D03B685A013B69134403F530631B
:103528001A464FF400439360786804F04FFAFB683A
:103538000A4A93420CD97B689B79012B08D17B6896
:1035480018687B6803F29C431A46012102F074F85C
:10355800002318461837BD4680BD00BF0A30544FB7
:1035680080B485B000AF78600B46FB7013463B8093
:103578007B681B685B6ABB60FB78002B07D13B88C4
:1035880019047B681B68BA680A439A6228E07B685A
:103598001B689B6A1B0CBA681344BB600023FB734F
:1035A8000DE07B681A68FB7B40339B0013445B6823
:1035B8001B0CBA681344BB60FB7B0133FB73FA7BBB
:1035C800FB78013B9A42ECD33B8818047B68196866
:1035D800FB78013BBA68024340339B000B445A60B6
:1035E800002318461437BD4680BC704780B483B0AA
:1035F80000AF78600B467B807B681B687A885A62CC
:10360800002318460C37BD4680BC704780B483B091
:1036180000AF78600B46FB7000BF0C37BD4680BC1E
:103628007047000080B586B000AF78607B68002BDB
:1036380001D1012367E27B681B6803F00103002BBB
:1036480075D0884B9B6803F00C03042B0CD0854B7A
:103658009B6803F00C03082B12D1824B5B6803F4C0
:103668008003B3F5800F0BD17E4B1B6803F4003346
:10367800002B5BD07B685B68002B57D1012342E2AB
:103688007B685B68B3F5803F06D1764B1B68754A4B
:1036980043F4803313601DE07B685B68B3F5A02FAB
:1036A8000CD1704B1B686F4A43F4802313606D4B39
:1036B8001B686C4A43F4803313600BE0694B1B684A
:1036C800684A23F480331360664B1B68654A23F409
:1036D800802313607B685B68002B13D0FDF7FEFA2C
:1036E800386108E0FDF7FAFA02463B69D31A642B01
:1036F80001D9032307E25B4B1B6803F40033002B5B
:10370800F0D014E0FDF7EAFA386108E0FDF7E6FAD0
:1037180002463B69D31A642B01D90323F3E1514BC9
:103728001B6803F40033002BF0D100E000BF7B6876
:103738001B6803F00203002B63D04A4B9B6803F01D
:103748000C03002B0BD0474B9B6803F00C03082B92
:103758001CD1444B5B6803F48003002B16D1414B0A
:103768001B6803F00203002B05D07B68DB68012B84
:1037780001D00123C7E13B4B1B6823F0F8027B68AB
:103788001B69DB00374913430B603AE07B68DB6851
:10379800002B20D0344B01221A60FDF79FFA3861C4
:1037A80008E0FDF79BFA02463B69D31A022B01D9C0
:1037B8000323A8E12B4B1B6803F00203002BF0D076
:1037C800284B1B6823F0F8027B681B69DB0025493E
:1037D80013430B6015E0244B00221A60FDF77EFAB4
:1037E800386108E0FDF77AFA02463B69D31A022BE2
:1037F80001D9032387E11B4B1B6803F00203002B4D
:10380800F0D17B681B6803F00803002B36D07B6877
:103818005B69002B16D0154B01221A60FDF75EFA82
:10382800386108E0FDF75AFA02463B69D31A022BC1
:1038380001D9032367E10B4B5B6F03F00203002BF5
:10384800F0D01BE0094B00221A60FDF747FA3861F7
:103858000EE0FDF743FA02463B69D31A022B07D95B
:10386800032350E10038024000004742800E4742DF
:10387800884B5B6F03F00203002BEAD17B681B685F
:1038880003F00403002B00F097800023FB75814BA5
:103898001B6C03F08053002B0FD10023BB607D4BC2
:1038A8001B6C7C4A43F0805313647A4B1B6C03F007
:1038B8008053BB60BB680123FB75774B1B6803F41F
:1038C8008073002B18D1744B1B68734A43F48073C0
:1038D8001360FDF703FA386108E0FDF7FFF90246C7
:1038E8003B69D31A022B01D903230CE16A4B1B68ED
:1038F80003F48073002BF0D07B689B68012B06D102
:10390800644B1B6F634A43F0010313671CE07B6839
:103918009B68052B0CD15F4B1B6F5E4A43F0040379
:1039280013675C4B1B6F5B4A43F0010313670BE0A3
:10393800584B1B6F574A23F001031367554B1B6FF6
:10394800544A23F0040313677B689B68002B15D047
:10395800FDF7C4F938610AE0FDF7C0F902463B6992
:10396800D31A41F28832934201D90323CBE0494B61
:103978001B6F03F00203002BEED014E0FDF7AEF945
:1039880038610AE0FDF7AAF902463B69D31A41F209
:103998008832934201D90323B5E03E4B1B6F03F0F5
:1039A8000203002BEED1FB7D012B05D1394B1B6C9B
:1039B800384A23F0805313647B689B69002B00F01E
:1039C800A180344B9B6803F00C03082B5CD07B6808
:1039D8009B69022B41D1314B00221A60FDF77EF919
:1039E800386108E0FDF77AF902463B69D31A022BE1
:1039F80001D9032387E0274B1B6803F00073002BD2
:103A0800F0D17B68DA697B681B6A1A437B685B6A5A
:103A18009B011A437B689B6A5B08013B1B041A43A2
:103A28007B68DB6A1B061B4913434B601B4B012257
:103A38001A60FDF753F9386108E0FDF74FF90246BF
:103A48003B69D31A022B01D903235CE0114B1B6895
:103A580003F00073002BF0D054E0104B00221A60E2
:103A6800FDF73CF9386108E0FDF738F902463B6993
:103A7800D31A022B01D9032345E0064B1B6803F038
:103A88000073002BF0D13DE07B689B69012B07D1C7
:103A9800012338E0003802400070004060004742CF
:103AA8001B4B5B68FB607B689B69012B28D0FB681C
:103AB80003F480027B68DB699A4221D1FB6803F03A
:103AC8003F027B681B6A9A421AD1FA6847F6C073AC
:103AD80013407A68526A9201934211D1FB6803F449
:103AE80040327B689B6A5B08013B1B049A4207D102
:103AF800FB6803F070627B68DB6A1B069A4201D0A0
:103B0800012300E0002318461837BD4680BD00BFDA
:103B18000038024080B584B000AF786039607B68B7
:103B2800002B01D10123CCE0684B1B6803F007038D
:103B38003A689A420CD9654B3A68D2B21A70634B0C
:103B48001B6803F007033A689A4201D00123B8E0E2
:103B58007B681B6803F00203002B20D07B681B687E
:103B680003F00403002B05D0594B9B68584A43F4D3
:103B7800E05393607B681B6803F00803002B05D0B3
:103B8800534B9B68524A43F460439360504B9B6885
:103B980023F0F0027B689B684D4913438B607B6878
:103BA8001B6803F00103002B44D07B685B68012B82
:103BB80007D1474B1B6803F40033002B19D10123AD
:103BC8007FE07B685B68022B03D07B685B68032B14
:103BD80007D13F4B1B6803F00073002B09D1012369
:103BE8006FE03B4B1B6803F00203002B01D101235C
:103BF80067E0374B9B6823F003027B685B683449B6
:103C080013438B60FDF76AF8F8600AE0FDF766F881
:103C18000246FB68D31A41F28832934201D9032342
:103C28004FE02B4B9B6803F00C027B685B689B00A2
:103C38009A42EBD1254B1B6803F007033A689A4276
:103C48000CD2224B3A68D2B21A70204B1B6803F090
:103C580007033A689A4201D0012332E07B681B6867
:103C680003F00403002B08D0194B9B6823F4E0529F
:103C78007B68DB68164913438B607B681B6803F01D
:103C88000803002B09D0124B9B6823F460427B6821
:103C98001B69DB000E4913438B6000F021F80246D4
:103CA8000B4B9B681B0903F00F030A49CB5C22FAF4
:103CB80003F3094A1360094B1B681846FCF7CCFF4D
:103CC800002318461037BD4680BD00BF003C0240A7
:103CD80000380240B88400080000002004000020DA
:103CE8002DE9B04F90B000AF00237B630023FB6346
:103CF80000233B630023BB63594B9B6803F00C0311
:103D0800082B0DD0082B00F2A280002B02D0042B28
:103D180003D09CE0534BBB639CE0534BBB6399E0DF
:103D28004F4B5B6803F03F037B634D4B5B6803F4C9
:103D38008003002B27D04A4B5B689B0900223B621B
:103D48007A623B6AC3F308000021474B03FB01F288
:103D5800002300FB03F31344434AA0FB0221F9624A
:103D6800BA62FA6A1344FB627B6B0022BB61FA6198
:103D7800D7E90623D7E90A01FCF722FA02460B46DF
:103D88001346FB6355E0364B5B689B0900223B6199
:103D98007A613B69C3F3080A4FF0000B52465B4651
:103DA8004FF000004FF00001590141EAD261500183
:103DB80002460B46B2EB0A0863EB0B094FF0000210
:103DC8004FF000034FEA891343EA98634FEA8812D9
:103DD800B2EB080463EB09054FF000024FF0000353
:103DE800EB0043EA5473E20014461D4614EB0A0341
:103DF8003B6045EB0B037B604FF000024FF0000384
:103E0800D7E9004529468B0220462946044643EA5D
:103E1800945301468A02104619467B6B0022BB6008
:103E2800FA60D7E90223FCF7CBF902460B461346A2
:103E3800FB630B4B5B681B0C03F0030301335B0054
:103E48003B63FA6B3B6BB2FBF3F3BB6302E0054BDE
:103E5800BB6300BFBB6B18464037BD46BDE8B08F9B
:103E6800003802400024F400001BB70080B400AF03
:103E7800024B1B681846BD4680BC704700000020F6
:103E880080B586B000AF786000237B6100233B617A
:103E98007B681B6803F00103002B05D17B681B6856
:103EA80003F00403002B35D0624B00221A60FCF7A4
:103EB80015FF786108E0FCF711FF02467B69D31A09
:103EC800022B01D90323B0E05B4B1B6803F00063AE
:103ED800002BF0D17B685B689A017B689B681B07A5
:103EE80055491343C1F88430524B01221A60FCF73C
:103EF800F5FE786108E0FCF7F1FE02467B69D31A0B
:103F0800022B01D9032390E04B4B1B6803F000639D
:103F1800002BF0D07B681B6803F00203002B00F035
:103F280083800023FB60444B1B6C434A43F080535F
:103F38001364414B1B6C03F08053FB60FB683F4BE1
:103F48001B683E4A43F480731360FCF7C7FE786130
:103F580008E0FCF7C3FE02467B69D31A022B01D99D
:103F6800032362E0354B1B6803F48073002BF0D009
:103F7800314B1B6F03F440733B613B69002B2FD01F
:103F88007B68DB6803F440733A699A4228D02A4B6D
:103F98001B6F23F440733B61294B01221A60284BA5
:103FA80000221A60244A3B691367234B1B6F03F0F6
:103FB8000103012B14D1FCF791FE78610AE0FCF7AC
:103FC8008DFE02467B69D31A41F28832934201D9A9
:103FD80003232AE0184B1B6F03F00203002BEED0DB
:103FE8007B68DB6803F44073B3F5407F0DD1124B57
:103FF8009B6823F4F8127B68DB6823F0704323F492
:1040080040730D4913438B6005E00B4B9B680A4ACC
:1040180023F4F8139360084B1A6F7B68DB68C3F3CB
:104028000B03054913430B67002318461837BD4691
:1040380080BD00BF68004742003802400070004061
:10404800400E474280B487B000AF786000237B61A0
:1040580000233B610023FB600023BB607B68012BCE
:104068003FD1234B9B6803F40003FB60FB68002BE4
:1040780006D0FB68B3F5000F2FD11E4B7B612FE0F4
:104088001B4B5B6803F48003B3F5800F08D1184B12
:104098005B6803F03F03184AB2FBF3F33B6107E0A8
:1040A800134B5B6803F03F03144AB2FBF3F33B6125
:1040B8000F4BD3F884309B09C3F308023B6902FB1A
:1040C80003F3BB600A4BD3F884301B0F03F00703DC
:1040D800BA68B2FBF3F37B6102E000237B6100BFA7
:1040E80000E000BF7B6918461C37BD4680BC70479E
:1040F800003802400080BB00001BB7000024F40019
:1041080084B080B584B000AF786007F11C0080E807
:104118000E0097F82130012B23D17B689B6B23F489
:1041280080327B689A637B68DB6823F4840323F01E
:1041380040037A68D3607B68DB6823F440127B68AD
:10414800DA6097F82830012B05D17B68DB6843F4E7
:1041580080127B68DA60786801F0CAFA0346FB735C
:104168001BE07B68DB6843F040027B68DA607868B4
:1041780001F0BEFA0346FB7397F82530002B06D1F1
:104188007B689B6B43F480327B689A6305E07B68AD
:104198009B6B23F480327B689A63BB7F012B0BD126
:1041A8007B689B6843F006027B689A607B689B6823
:1041B80043F020027B689A60FB7B18461037BD46A7
:1041C800BDE8804004B0704780B487B000AFF860A5
:1041D800B9601346FB71FB79022B65D1BB68414A74
:1041E800934206D9BB68404A934202D20F237B61AF
:1041F80062E0BB683C4A934206D3BB683B4A9342A1
:1042080002D20E237B6157E0BB68384A934206D33B
:10421800BB68374A934202D20D237B614CE0BB68EE
:10422800334A934206D3BB68324A934202D80C23DE
:104238007B6141E0BB682F4A934206D9BB682E4A8E
:10424800934202D80B237B6136E0BB682A4A93422B
:1042580006D9BB68294A934202D80A237B612BE01E
:10426800BB68264A934206D9BB68254A934202D2C4
:1042780009237B6120E0BB68214A934206D3BB68CF
:10428800204A934202D808237B6115E0BB681D4A87
:10429800934206D9BB681C4A934202D207237B612A
:1042A8000AE006237B6107E0FB79002B02D1092392
:1042B8007B6101E009237B61FB68DB6823F47052B2
:1042C800FB68DA60FB68DA687B699B0203F4705369
:1042D8001A43FB68DA60002318461C37BD4680BCC9
:1042E800704700BFBFACD800C0E1E4000024F40070
:1042F800807306019F491A01FF2C31013FA44C012C
:1043080000366E011FABA6010048E80180B483B0F7
:1043180000AF78607B689B6843F001027B689A6015
:10432800002318460C37BD4680BC704780B483B064
:1043380000AF78607B689B6823F001027B689A6015
:10434800002318460C37BD4680BC704780B584B042
:1043580000AF78600B46FB700023FB607B68DB686E
:1043680023F0C0427B68DA60FB78012B15D17B68AB
:10437800DB6843F000527B68DA600A20FCF7B8FC7F
:10438800FB680A33FB60786801F026F90346012BC5
:104398001ED0FB68C72BF0D91AE0FB78002B15D18B
:1043A8007B68DB6843F080427B68DA600A20FCF7B0
:1043B8009FFCFB680A33FB60786801F00DF903463F
:1043C800002B05D0FB68C72BF0D901E0012305E0DD
:1043D800FB68C82B01D1012300E0002318461037E1
:1043E800BD4680BD84B080B586B000AF786007F167
:1043F800240080E80E000023FB757B68FB60002327
:104408003B6109E07A683B6940339B001344002212
:104418005A603B6901333B613B690E2BF2D997F82F
:104428002E30002B1CD1FB6803F500635B68FA682B
:1044380002F5006243F0020353607B689B6B43F410
:1044480000127B689A637B689B6B23F400227B686D
:104458009A637B689B6B23F480227B689A630BE0EA
:104468007B689B6B23F400127B689A637B689B6B69
:1044780043F400227B689A63FB6803F560631A467D
:104488000023136097F82930012B0DD197F82730B6
:10449800002B04D10021786800F066F908E00121BA
:1044A800786800F061F903E00321786800F05CF9AE
:1044B8001021786800F0FAF80346002B01D0012398
:1044C800FB75786800F023F90346002B01D001231F
:1044D800FB75FB6803F500631A4600231361FB684C
:1044E80003F500631A4600235361FB6803F5006374
:1044F8001A460023D36100233B6143E03B695A011C
:10450800FB68134403F510631B6803F00043B3F121
:10451800004F18D13B69002B0AD13B695A01FB684F
:10452800134403F510631A464FF00063136013E059
:104538003B695A01FB68134403F510631A464FF0B0
:104548009043136008E03B695A01FB68134403F584
:1045580010631A46002313603B695A01FB68134431
:1045680003F510631A46002313613B695A01FB687F
:10457800134403F510631A464FF67F3393603B6983
:1045880001333B6197F824301A463B699342B5D30F
:1045980000233B6143E03B695A01FB68134403F580
:1045A80030631B6803F00043B3F1004F18D13B6937
:1045B800002B0AD13B695A01FB68134403F53063A9
:1045C8001A464FF00063136013E03B695A01FB6819
:1045D800134403F530631A464FF09043136008E024
:1045E8003B695A01FB68134403F530631A460023FC
:1045F80013603B695A01FB68134403F530631A469C
:10460800002313613B695A01FB68134403F53063C7
:104618001A464FF67F3393603B6901333B6197F845
:1046280024301A463B699342B5D3FB6803F500630F
:104638001B69FA6802F5006223F4807313617B68D2
:1046480000229A617B686FF080425A6197F82630A1
:10465800002B05D17B689B6943F010027B689A6147
:104668007B689A69104B13437A68936197F82A30EC
:10467800002B05D07B689B6943F008027B689A6130
:1046880097F82E30012B07D17B689B6943F0804354
:1046980043F004037A689361FB7D18461837BD46DA
:1046A800BDE8804004B0704700383C8080B485B0D5
:1046B80000AF786039600023FB60FB680133FB6062
:1046C800FB68B3F1706F01D903231BE07B681B699A
:1046D800002BF2DA0023FB603B689B0143F02002C9
:1046E8007B681A61FB680133FB60FB68B3F1706F8C
:1046F80001D9032306E07B681B6903F02003202B04
:10470800F0D0002318461437BD4680BC704780B4EB
:1047180085B000AF78600023FB60FB680133FB6065
:10472800FB68B3F1706F01D9032318E07B681B693C
:10473800002BF2DA0023FB607B6810221A61FB6809
:104748000133FB60FB68B3F1706F01D9032306E006
:104758007B681B6903F01003102BF0D00023184668
:104768001437BD4680BC704780B485B000AF786010
:104778000B46FB707B68FB60FB6803F500631A68F7
:10478800FB78F96801F5006113430B6000231846B4
:104798001437BD4680BC704780B487B000AF7860DE
:1047A8007B683B613B6903F500639B6803F0060384
:1047B800FB60FB68002B02D10023FB750AE0FB6855
:1047C800022B02D0FB68062B02D10223FB7501E005
:1047D8000F23FB75FB7D18461C37BD4680BC704710
:1047E80080B485B000AF786039607B68FB603B6857
:1047F8001B78BB603B685B78012B3AD1FB6803F5FB
:104808000063DA693B681B7803F00F03012101FAA2
:1048180003F39BB2F96801F500611343CB61BB68F0
:104828005A01FB68134403F510631B6803F4004343
:10483800002B55D1BB685A01FB68134403F510637C
:104848001A683B689B68C3F30A013B681B799B04A1
:104858001943BB689B050B431343BA685101FA68B7
:104868000A4402F5106243F0805343F40043136096
:1048780036E0FB6803F50063DA693B681B7803F0F0
:104888000F03012101FA03F31B04F96801F5006124
:104898001343CB61BB685A01FB68134403F53063CB
:1048A8001B6803F40043002B1AD1BB685A01FB684C
:1048B800134403F530631A683B689B68C3F30A0125
:1048C8003B681B799B040B431343BA685101FA6890
:1048D8000A4402F5306243F0805343F40043136006
:1048E800002318461437BD4680BC704780B485B095
:1048F80000AF786039607B68FB603B681B78BB6001
:104908003B685B78012B61D1BB685A01FB68134493
:1049180003F510631B6803F00043B3F1004F1FD188
:10492800BB685A01FB68134403F510631B68BA6837
:104938005101FA680A4402F5106243F000631360FB
:10494800BB685A01FB68134403F510631B68BA6817
:104958005101FA680A4402F5106243F0804313607B
:10496800FB6803F50063DA6B3B681B7803F00F0301
:10497800012101FA03F39BB2DB43F96801F50061F9
:104988001340CB63FB6803F50063DA693B681B7867
:1049980003F00F03012101FA03F39BB2DB43F9682B
:1049A80001F500611340CB61BB685A01FB681344F1
:1049B80003F510631A68BB685901FB680B4403F5DB
:1049C80010631946354B13400B6060E0BB685A0111
:1049D800FB68134403F530631B6803F00043B3F12D
:1049E800004F1FD1BB685A01FB68134403F53063BD
:1049F8001B68BA685101FA680A4402F5306243F04C
:104A080000631360BB685A01FB68134403F5306305
:104A18001B68BA685101FA680A4402F5306243F02B
:104A280080431360FB6803F50063DA6B3B681B780F
:104A380003F00F03012101FA03F31B04DB43F968B8
:104A480001F500611340CB63FB6803F50063DA6985
:104A58003B681B7803F00F03012101FA03F31B04E1
:104A6800DB43F96801F500611340CB61BB685A016B
:104A7800FB68134403F530631A68BB685901FB6887
:104A88000B4403F530631946054B13400B600023B4
:104A980018461437BD4680BC704700BF007833EC19
:104AA8000078F3EF80B58AB002AFF860B9601346BA
:104AB800FB71FB68FB61BB681B78BB61BB685B78FB
:104AC800012B40F07A81BB681B69002B32D1BB698E
:104AD8005A01FB69134403F510631B69BA69510154
:104AE800FA690A4402F5106223F0FF5323F4C01355
:104AF8001361BB695A01FB69134403F510631B6911
:104B0800BA695101FA690A4402F5106243F40023B4
:104B18001361BB695A01FB69134403F510631B69F0
:104B2800BA695101FA690A4402F51062DB0CDB0428
:104B3800136192E0BB695A01FB69134403F51063E2
:104B48001B69BA695101FA690A4402F51062DB0C63
:104B5800DB041361BB695A01FB69134403F5106355
:104B68001B69BA695101FA690A4402F5106223F017
:104B7800FF5323F4C0131361BB69002B1AD1BB6820
:104B88001A69BB689B689A4203D9BB689A68BB6874
:104B98001A61BB695A01FB69134403F510631B6969
:104BA800BA695101FA690A4402F5106243F4002314
:104BB80013611BE0BB695A01FB69134403F51063D9
:104BC8001A69BB681969BB689B680B44591EBB68A6
:104BD8009B68B1FBF3F3D904A24B0B40B9694801B8
:104BE800F969014401F5106113430B61BB695A016E
:104BF800FB69134403F510631A69BB681B69C3F3A7
:104C08001203B9694801F969014401F510611343B8
:104C18000B61BB681B79012B1FD1BB695A01FB696A
:104C2800134403F510631B69BA695101FA690A4410
:104C380002F5106223F0C0431361BB695A01FB6996
:104C4800134403F510631B69BA695101FA690A44F0
:104C580002F5106243F000531361FB79012B4BD12D
:104C6800BB68DB69002B09D0BB695A01FB69134497
:104C780003F510631A46BB68DB695361BB681B798F
:104C8800012B28D1FB6903F500639B6803F480734B
:104C9800002B10D1BB695A01FB69134403F510635B
:104CA8001B68BA695101FA690A4402F5106243F0B7
:104CB800005313600FE0BB695A01FB69134403F505
:104CC80010631B68BA695101FA690A4402F5106257
:104CD80043F080531360BB695A01FB69134403F521
:104CE80010631B68BA695101FA690A4402F5106237
:104CF80043F00443136065E1BB695A01FB6913443F
:104D080003F510631B68BA695101FA690A4402F590
:104D1800106243F004431360BB681B79012B15D064
:104D2800BB681B69002B00F04D81FB6903F500632C
:104D38005A6BBB681B7803F00F03012101FA03F3D8
:104D4800F96901F5006113434B633BE1FB6903F526
:104D580000639B6803F48073002B10D1BB695A0170
:104D6800FB69134403F510631B68BA695101FA69BA
:104D78000A4402F5106243F0005313600FE0BB6968
:104D88005A01FB69134403F510631B68BA695101A2
:104D9800FA690A4402F5106243F080531360BB6855
:104DA800D968BB681A78BB681B6998B2FB7900930D
:104DB8000346F86800F0B7F904E1BB695A01FB69DA
:104DC800134403F530631B69BA695101FA690A444F
:104DD80002F53062DB0CDB041361BB695A01FB6925
:104DE800134403F530631B69BA695101FA690A442F
:104DF80002F5306223F0FF5323F4C0131361BB693B
:104E0800002B31D1BB681B69002B03D0BB689A68A3
:104E1800BB681A61BB689A68BB681A62BB695A01A9
:104E2800FB69134403F530631A69BB681B6AC3F353
:104E38001203B9694801F969014401F53061134366
:104E48000B61BB695A01FB69134403F530631B69A5
:104E5800BA695101FA690A4402F5306243F4002341
:104E6800136161E00000F81FBB681B69002B23D1A8
:104E7800BB695A01FB69134403F530631A69BB68BF
:104E88009B68C3F31203B9694801F969014401F544
:104E9800306113430B61BB695A01FB69134403F585
:104EA80030631B69BA695101FA690A4402F5306234
:104EB80043F40023136137E0BB681A69BB689B6839
:104EC80013445A1EBB689B68B2FBF3F3FB82BB68B2
:104ED8009B68FA8A03FB02F2BB681A62BB695A0133
:104EE800FB69134403F530631A69FB8AD904384B0C
:104EF8000B40B9694801F969014401F53061134370
:104F08000B61BB695A01FB69134403F530631A69E5
:104F1800BB681B6AC3F31203B9694801F969014404
:104F280001F5306113430B61FB79012B0DD1BB688F
:104F3800DB68002B09D0BB68D968BB695A01FB69DB
:104F4800134403F530630A465A61BB681B79012B89
:104F580028D1FB6903F500639B6803F48073002B79
:104F680010D1BB695A01FB69134403F530631B6810
:104F7800BA695101FA690A4402F5306243F00053F4
:104F880013600FE0BB695A01FB69134403F53063F2
:104F98001B68BA695101FA690A4402F5306243F0A4
:104FA80080531360BB695A01FB69134403F53063EE
:104FB8001B68BA695101FA690A4402F5306243F084
:104FC80004431360002318462037BD4680BD00BF48
:104FD8000000F81F80B487B000AF78603960002304
:104FE800FB600023FB757B683B613B685B78012BAA
:104FF8004AD13B681B785A013B69134403F5106397
:105008001B6803F00043B3F1004F40F086803B6813
:105018001B785A013B69134403F510631B683A680F
:10502800127851013A690A4402F5106243F00063AC
:1050380013603B681B785A013B69134403F51063FE
:105048001B683A68127851013A690A4402F51062FD
:1050580043F080431360FB680133FB60FB6842F256
:105068001072934202D90123FB7556E03B681B7806
:105078005A013B69134403F510631B6803F00043AE
:10508800B3F1004FE7D048E03B681B785A013B6911
:10509800134403F530631B6803F00043B3F1004F7A
:1050A8003BD13B681B785A013B69134403F53063D5
:1050B8001B683A68127851013A690A4402F530626D
:1050C80043F0006313603B681B785A013B69134443
:1050D80003F530631B683A68127851013A690A444B
:1050E80002F5306243F080431360FB680133FB60D4
:1050F800FB6842F21072934202D90123FB750CE05F
:105108003B681B785A013B69134403F530631B68FD
:1051180003F00043B3F1004FE7D0FB7D18461C377E
:10512800BD4680BC704780B489B000AFF860B960F4
:1051380011461A460B46FB711346BB80FB687B6120
:10514800BB68FB6197F82830002B23D1BB88033359
:105158009B083B610023BB6118E0FB791A037B695C
:10516800134403F580531A46FB691B681360FB69F7
:105178000133FB61FB690133FB61FB690133FB61AF
:10518800FB690133FB61BB690133BB61BA693B69E8
:105198009A42E2D3002318462437BD4680BC7047A4
:1051A80080B48BB000AFF860B9601346FB80FB6831
:1051B800BB61BB687B62FB889B089BB27B61FB88F9
:1051C80003F00303FB8300233B6214E0BB6903F590
:1051D80080531A687B6A1A607B6A01337B627B6A38
:1051E80001337B627B6A01337B627B6A01337B62BA
:1051F8003B6A01333B623A6A7B699A42E6D3FB8B8E
:10520800002B1ED000233B62BB6903F580531A466E
:1052180007F1100312681A603A693B6ADBB2DB00D7
:1052280022FA03F3DAB27B6A1A703B6A01333B62F3
:105238007B6A01337B62FB8B013BFB83FB8B002B7F
:10524800EAD17B6A18462C37BD4680BC704780B4CB
:1052580085B000AF786039607B68FB603B681B787D
:10526800BB603B685B78012B2CD1BB685A01FB689B
:10527800134403F510631B68002B12DBBB68002B7B
:105288000FD0BB685A01FB68134403F510631B6811
:10529800BA685101FA680A4402F5106223F08043A3
:1052A8001360BB685A01FB68134403F510631B685D
:1052B800BA685101FA680A4402F5106243F400130F
:1052C80013602BE0BB685A01FB68134403F5306395
:1052D8001B68002B12DBBB68002B0FD0BB685A0180
:1052E800FB68134403F530631B68BA685101FA6818
:1052F8000A4402F5306223F080431360BB685A0108
:10530800FB68134403F530631B68BA685101FA68F7
:105318000A4402F5306243F4001313600023184670
:105328001437BD4680BC704780B485B000AF786044
:1053380039607B68FB603B681B78BB603B685B78C7
:10534800012B28D1BB685A01FB68134403F510638D
:105358001B68BA685101FA680A4402F5106223F41E
:10536800001313603B681B79032B03D03B681B7940
:10537800022B38D1BB685A01FB68134403F510634C
:105388001B68BA685101FA680A4402F5106243F0D2
:105398008053136027E0BB685A01FB68134403F588
:1053A80030631B68BA685101FA680A4402F5306232
:1053B80023F4001313603B681B79032B03D03B686D
:1053C8001B79022B0FD1BB685A01FB68134403F504
:1053D80030631B68BA685101FA680A4402F5306202
:1053E80043F080531360002318461437BD4680BC31
:1053F800704780B485B000AF78600B46FB707B685F
:10540800FB60FB6803F500631B68FA6802F500623D
:1054180023F4FE631360FB6803F500631A68FB78E6
:105428001B0103F4FE63F96801F5006113430B6087
:10543800002318461437BD4680BC704780B485B039
:1054480000AF78607B68FB60FB6803F560631B68EE
:10545800FA6802F5606223F003031360FB6803F542
:1054680000635B68FA6802F5006223F00203536088
:10547800002318461437BD4680BC704780B485B0F9
:1054880000AF78607B68FB60FB6803F560631B68AE
:10549800FA6802F5606223F003031360FB6803F502
:1054A80000635B68FA6802F5006243F00203536028
:1054B800002318461437BD4680BC704780B485B0B9
:1054C80000AF78607B685B69FB607B689B69FA6802
:1054D8001340FB60FB6818461437BD4680BC704714
:1054E80080B485B000AF78607B68FB60FB6803F52B
:1054F80000639B69BB60FB6803F50063DB69BA68FE
:105508001340BB60BB681B0C18461437BD4680BCF3
:10551800704780B485B000AF78607B68FB60FB683B
:1055280003F500639B69BB60FB6803F50063DB69F7
:10553800BA681340BB60BB689BB218461437BD46B7
:1055480080BC704780B485B000AF78600B46FB70B4
:105558007B68FB60FB785A01FB68134403F53063F2
:105568009B68BB60FB6803F500635B69BA6813401E
:10557800BB60BB6818461437BD4680BC704780B412
:1055880087B000AF78600B46FB707B687B617B69F6
:1055980003F500631B693B617B6903F500635B6B83
:1055A800FB60FB7803F00F03FA6822FA03F3DB01D0
:1055B800DBB23A6913433B61FB785A017B691344B8
:1055C80003F510639B683A691340BB60BB681846D3
:1055D8001C37BD4680BC704780B483B000AF78608C
:1055E8007B685B6903F0010318460C37BD4680BC35
:1055F800704780B485B000AF78607B68FB60FB685B
:1056080003F510631B68FA6802F5106223F4FF6360
:1056180023F007031360FB6803F500635B68FA680F
:1056280002F5006243F48073536000231846143770
:10563800BD4680BC7047000080B487B000AFF860FA
:105648000B467A60FB72FB687B61FB683C33043372
:105658001B683B613B69254A93420AD97B6903F57C
:1056680030631B6803F00043B3F1004F01D10023FE
:1056780037E07B6903F530631A46002313617B69C1
:1056880003F530631B697A6902F5306243F400233D
:1056980013617B6903F530631B697A6902F530622F
:1056A80043F0180313617B6903F530631B697A695A
:1056B80002F5306243F0C0431361FB7A012B0FD12E
:1056C8007B6903F530631A467B6853617B6903F590
:1056D80030631B687A6902F5306243F080231360F7
:1056E800002318461C37BD4680BC70470A30544F0B
:1056F80080B485B000AF78600023FB60FB6801339D
:10570800FB60FB68B3F1706F01D903231BE07B6872
:105718001B69002BF2DA0023FB607B681B6943F0EE
:1057280001027B681A61FB680133FB60FB68B3F117
:10573800706F01D9032306E07B681B6903F001033E
:10574800012BF0D0002318461437BD4680BC7047A3
:1057580080B584B000AF78600B46FB704FF45D7085
:1057680002F09CFBF860FB68002B09D17B68D3F83A
:10577800D4227B68B032002143F822100223B2E021
:105788007B68D3F8D4227B68B032F96843F82210DA
:105798007B68D3F8D4227B68B03253F822207B6828
:1057A800C3F8BC227B681B7C002B1BD1504B1B7899
:1057B80003F00F02796813469B0013449B000B44C7
:1057C80003F5B37301221A804A4B1B7803F00F02CA
:1057D800796813469B0013449B000B44263301222F
:1057E8001A801AE0424B1B7803F00F0279681346BF
:1057F8009B0013449B000B4403F5B37301221A80EA
:105808003C4B1B7803F00F02796813469B00134446
:105818009B000B44263301221A80354B19784FF42C
:10582800C8730122786802F02AFA314B1B7803F01A
:105838000F02796813469B0013449B000B4403F541
:10584800B27301221A802B4B19784FF4C8730122C6
:10585800786802F014FA274B1B7803F00F02796876
:1058680013469B0013449B000B4403F5B2730122BB
:105878001A80FB6800221A60FB68032283F824233D
:10588800FB680022A3F82823FB680022A3F826233C
:10589800FB68002283F825237B68D3F8D4327A6822
:1058A800B0339B0013445B681B68002246214BF60B
:1058B800803098470346002B01D0032313E00C4B9C
:1058C8001978FB681A1D4FF4C873786802F0C5FA96
:1058D800084B1978FB6803F5CA724FF4C8737868E7
:1058E80002F09AFA002318461037BD4680BD00BF63
:1058F8007A0000207B00002080B582B000AF78607D
:105908000B46FB70284B1B781946786802F0DDF9C6
:10591800254B1B7803F00F02796813469B0013444C
:105928009B000B4403F5B27300221A801E4B1B78B0
:1059380003F00F02796813469B0013449B000B4445
:1059480003F5B37300221A807B68D3F8D4227B68EE
:10595800B03253F82230002B20D07B68D3F8D432F1
:105968007A68B0339B0013445B685B6800209847F3
:105978007B68D3F8D4227B68B03253F822301846BB
:1059880002F098FA7B68D3F8D4227B68B032002101
:1059980043F822107B680022C3F8BC220023184673
:1059A8000837BD4680BD00BF7A00002080B586B0AC
:1059B80000AF7860396000233B810023FB757B686A
:1059C800D3F8D4227B68B03253F822303B613B696C
:1059D800002B01D10323C1E03B681B7803F060036F
:1059E800002B1AD0202B40F0B1803B685B78012B4C
:1059F80006D0812B09D13968786800F03BFA0BE0B2
:105A08003968786800F060FA06E03968786801F06B
:105A1800B8FC0323FB7500BF9FE03B685B780B2B4A
:105A280000F2898001A252F823F000BF655A0008ED
:105A38004D5B00083F5B00083F5B00083F5B0008C8
:105A48003F5B00088F5A00083F5B00083F5B000877
:105A58003F5B0008D75A0008FF5A00087B6893F894
:105A68009C32DBB2032B07D107F108030222194647
:105A7800786801F0F6FC68E03968786801F081FC24
:105A88000323FB7561E03B685B881B0A9BB2212BF3
:105A98005AD17B68D3F8D032184600F07AFAF86009
:105AA800FB68002B0CD03B68DB88092B28BF092337
:105AB8007B817B891A46F968786801F0D2FC43E05B
:105AC8003968786801F05DFC0323FB753CE07B686E
